:020000040800F2
:10000000F8060020CD010008F9130008F1130008DC
:10001000F5130008D5020008591800080000000078
:100020000000000000000000000000004D18000863
:10003000D9020008000000006517000851180008E8
:10004000E7010008E7010008E7010008E7010008F0
:10005000E7010008E7010008E7010008E7010008E0
:10006000E7010008E7010008E7010008E7010008D0
:10007000E7010008E7010008E7010008E7010008C0
:10008000E7010008E7010008E7010008E7010008B0
:10009000E7010008E7010008E7010008E7010008A0
:1000A000E7010008E7010008E7010008E701000890
:1000B000E7010008E7010008E7010008E701000880
:1000C000E7010008E7010008E7010008E701000870
:1000D000E7010008E7010008E7010008E701000860
:1000E000E7010008E7010008E7010008E701000850
:1000F000E7010008E7010008E7010008E701000840
:10010000E7010008E7010008E7010008E70100082F
:10011000E7010008E7010008E7010008E70100081F
:10012000E7010008E7010008E7010008E70100080F
:1001300000F002F800F03AF80AA090E8000C8244BF
:100140008344AAF10107DA4501D100F02FF8AFF29C
:10015000090EBAE80F0013F0010F18BFFB1A43F0A5
:1001600001031847741D0000941D0000103A24BFBD
:1001700078C878C1FAD8520724BF30C830C144BF0C
:1001800004680C607047000000230024002500264E
:10019000103A28BF78C1FBD8520728BF30C148BFEA
:1001A0000B6070471FB51FBD10B510BD00F058F8AB
:1001B0001146FFF7F7FF01F051FB00F076F803B4AA
:1001C000FFF7F2FF03BC00F07DF80000094880470C
:1001D00009480047FEE7FEE7FEE7FEE7FEE7FEE729
:1001E000FEE7FEE7FEE7FEE704480549054A064B41
:1001F000704700005518000831010008F800002081
:10020000F8060020F8020020F80200204FF000025B
:1002100000B5134694469646203922BFA0E80C50FC
:10022000A0E80C50B1F12001BFF4F7AF090728BFD7
:10023000A0E80C5048BF0CC05DF804EB890028BF53
:1002400040F8042B08BF704748BF20F8022B11F07C
:10025000804F18BF00F8012B7047704770477047F8
:10026000754600F02BF8AE4605006946534620F06F
:100270000700854618B020B5FFF7B6FFBDE820405F
:100280004FF000064FF000074FF000084FF0000B52
:10029000AC46ACE8C009ACE8C009ACE8C009ACE8C1
:1002A000C00921F007018D46704710B50446AFF331
:1002B00000802046BDE81040FFF781BF004870472E
:1002C0003800002001491820ABBEFEE726000200DE
:1002D00070470000FEE7000070470000B0B504461C
:1002E00000F01CF9054640F22800C2F20000007838
:1002F000611C18BF044400BF00F010F9401BA0426D
:10030000FAD3B0BD2DE9F04F82B0D1F800C0BCF1F6
:10031000000F00F0F180A0F1804241F60045A2F507
:100320008432C4F2010540F2004E4FEAB22406279F
:10033000A842C4F2010E08BF0527052C4FF00004A7
:100340004FF001084FF00F034FF0000A4FF0000B81
:1003500038BF4FEAB22700970AE000BFD1F800C0CB
:100360000AF1010A3CFA0AF204F1040400F0C48024
:1003700008FA0AF91CEA090FF0D04E684FF6FF722E
:10038000C1F21002964211DC122E55D8DFE806F0B9
:10039000340A4448545454545454545454545454A3
:1003A000544C5000D1F80CB046E000BF4FF6FF723D
:1003B000C1F2210296420FDC0022C1F211029642E4
:1003C0001AD00022C1F21202964215D00022C1F2C8
:1003D0002102964210D02FE00022C1F22202964262
:1003E0000AD00022C1F23102964205D00022C1F2A9
:1003F0003202964220D100BF8A684AB1012A14BF56
:10040000C0F81490C0F810904FF0080B14E000BF33
:100410004FF0040B10E000BFCA6802F1080B0BE0BC
:100420004FF0000B08E000BFCA6802F1040B03E0C4
:10043000CA6802F10C0B00BF22460646BAF1080F4B
:1004400024BF203A0436376803FA02F5AF430BFAAB
:1004500002F23A433260CA79D2067FF57FAF41F2A9
:100460001807C4F202073A684FF6084342F0010247
:100470003A603A68CFF6FF7302F001020192019AE6
:100480002AF0030272440F25D75804F00C06B54039
:10049000AF43009D05FA06F63743D7504E6840F249
:1004A0000C45F202DEF8082054BF22EA090242EAB3
:1004B0000902CEF80820C4F201052A68B70254BF29
:1004C00022EA090242EA09022A60DEF80420B703A0
:1004D00054BF22EA090242EA0902CEF804200F239F
:1004E000DEF80020F70354BF22EA090242EA0902BB
:1004F000CEF8002032E700BF02B0BDE8F08F000068
:10050000C26802EA0103914341EA03410161704775
:10051000002A08BF090401617047000040F2F000A2
:10052000C2F200000068704740F2280040F2F0017B
:10053000C2F20000C2F2000100780A6810440860AC
:100540007047000080B542F20000C4F2020001686A
:1005500041F010010160032000F07AF80F2000F054
:1005600005F800F027F8002080BD000070B540F2CB
:100570002806C2F2000640F230013278C2F20001D1
:100580004FF47A730968B3FBF2F20446B1FBF2F15F
:10059000084600F017FF0F2C4FF0010508D838B9B6
:1005A0004FF0FF3021460022002500F025F874604E
:1005B000284670BD82B041F21800C4F20200016802
:1005C000022241F001010160016801F00101019185
:1005D0000199416841F080514160406800F08050CD
:1005E000009000980420C4F20100016862F31A61CF
:1005F000016002B07047000010B54EF60C5CCEF200
:10060000000CDCF80030C3F3022E8EF00704042C3B
:1006100028BF0424BEF103034FF0FF3E0EFA04F49A
:1006200038BF0023A14399400EFA03F39A431143C4
:1006300000F00F0200F160430901043A03F564433E
:100640006244002848BF02F10C03197010BD00007D
:100650004EF60C51CEF200010A684FF6FF031A4025
:1006600060F30A2242F0806040F0FD70086070473D
:100670002DE9F04381B0002800F0858042F20008A7
:10068000C4F202080446D8F800000D4600F0070046
:1006900088420CD2D8F8000020F007002843C8F8A0
:1006A0000000D8F8000000F00700A8426BD12068D5
:1006B00041F204098107C4F2020917D5410705D5A3
:1006C000D9F8001041F4E061C9F80010010705D520
:1006D000D9F8001041F46051C9F80010D9F80010A1
:1006E000A26821F0F0011143C9F80010C00741D100
:1006F000D8F8000000F00700A8420CD9D8F8000094
:1007000020F007002843C8F80000D8F8000000F0E7
:100710000700A84237D12068410707D5D9F8001053
:10072000E26821F4E0611143C9F80010000708D520
:10073000D9F80000216920F4605040EAC100C9F8EE
:100740000000D9F8002002F00C00082841F2002037
:10075000C0F27A0050D141F6C863C2F38341C0F6BB
:100760000003595CD2033BD440F60010C0F23D00B8
:10077000484341E0606802280AD001282AD159F88C
:10078000041C890308D4012001B0BDE8F08300BF38
:1007900059F8041C8901F6D5D9F8001021F003019D
:1007A0000843C9F80000FFF7B9FE064641F2883752
:1007B000D9F80000616800F00C00B0EB810F97D011
:1007C000FFF7ACFE801BB842F2D9032001B0BDE8B0
:1007D000F08300BF59F8041C8907D4D5DCE700BFBB
:1007E000D9F8002041F6C663C2F34042C0F60003C8
:1007F0009A5C4843B0FBF2F0D9F8001041F6B662BB
:10080000C1F30311C0F60002515C40F2300220FA3D
:1008100001F140F22C00C2F200000068C2F20002B6
:100820001160FFF7A3FE002001B0BDE8F0830000D7
:100830002DE9F04182B0002868D00446007841F2EA
:100840000006C007C4F2020625D0706800F00C0054
:1008500004281BD0706800F00C00082802D17068D2
:10086000C00313D46068002800F06881B0F5A02FA1
:1008700000F07C81B0F5803F00F07C81306820F48E
:1008800080303060306820F4802076E1306880036A
:1008900001D56068D0B32078800718D5706810F053
:1008A0000C0F07D0706800F00C0008286ED170683B
:1008B000C0036BD43068800702D52069012825D198
:1008C0003068616920F0F80040EAC10030602078AB
:1008D00000071FD42078400732D4E56995B17068CD
:1008E00000F00C00082840F08F80012D0ED07068B9
:1008F000216A00F480328A4208D1616A00F47010E3
:10090000884203D1002002B0BDE8F081012002B08E
:10091000BDE8F081A069002862D00020C4F2422026
:100920000121C0F88014FFF7F9FD0546706A8007C1
:1009300000F18C80FFF7F2FD401B0228F6D92AE176
:10094000F06910F0805808D1F06940F08050F061F3
:10095000F06900F080500090009847F20007C4F260
:1009600000073868C00529D4386840F480703860C2
:10097000FFF7D4FD054600BF3868C0051ED4FFF759
:10098000CDFD401B6428F7D905E100BF2069002890
:1009900040F20000C4F2422000F082800121016098
:1009A000FFF7BCFD054600BF306880073FF588AF04
:1009B000FFF7B4FD401B0228F6D9ECE0E068002800
:1009C00000F08080052800F09780012800F09880D2
:1009D000306A20F001003062306A20F0040092E0BA
:1009E0000020C4F242200021C0F88014FFF796FDD9
:1009F000054600BF706A80077FF56CAFFFF78EFD7C
:100A0000401B0228F6D9C6E00027C4F24227002086
:100A10003866FFF783FD022D05460BD13068800153
:100A200040F1BE80FFF77AFD401B02284FF0030023
:100A3000F4D968E7306880017FF564AFFFF76EFD99
:100A4000401B02284FF00300F4D95CE740F230006D
:100A5000C2F20000006844F6D351C1F26201A0FB6B
:100A60000101480A019000BF00BF0198411E002803
:100A700001913FF42FAF00BF0198411E0028019162
:100A80003FF428AF00BF0198411E002801913FF4B8
:100A900021AF00BF0198411E00280191E4D119E760
:100AA00000210160FFF73AFD054600BF306880076E
:100AB0007FF50DAFFFF732FD401B02284FF003001A
:100AC000F4D920E7306A20F001003062306A20F06B
:100AD00004003062FFF722FD054641F2883700BF6F
:100AE000306A800720D5FFF719FD401BB8424FF050
:100AF0000300F5D907E700BF306A40F00400306218
:100B0000306A40F001003062FFF708FD054641F20F
:100B1000883700BF306A800706D4FFF7FFFC401B10
:100B2000B842F7D937E000BFB8F1000F7FF4D5AE77
:100B3000F06920F08050F061CFE600BF306820F40B
:100B400080303060306820F480203060FFF7E6FCB1
:100B5000054600BF306880037FF59DAEFFF7DEFCE1
:100B6000401B64284FF00300F4D9CCE6306840F411
:100B700080203060306840F480303060FFF7CEFC79
:100B8000054600BF306880033FF585AEFFF7C6FC21
:100B9000401B6428F6D9032002B0BDE8F08100BFF5
:100BA000206AB0F5803F05D17168A26821F4003158
:100BB000114371607168626A21F474111143084332
:100BC000706001203866FFF7A9FC04463068800198
:100BD0003FF598AEFFF7A2FC001B02284FF0030080
:100BE000F4D990E670B538B10446406A30B10020BF
:100BF000206104F1140007E0012070BD6068B0F5C9
:100C0000827F03D004F11C00002101600026A6624F
:100C100094F8510020B9204684F8506000F038F86C
:100C2000022084F8510094E8071001F482710368EF
:100C300002F4044223F040030360236911440CF4DE
:100C40000062114403F002026369114403F00102DF
:100C5000A369E569114403F40072114405F03802F8
:100C6000256A114405F08002A56A114305F400527B
:100C700011430160042101EA13414160C16921F47B
:100C80000061C1610120666584F85100304670BD85
:100C900070B586B040F60004C4F20104006804F5A3
:100CA000205100268842049602D006B070BD00BFD5
:100CB00041F21800C4F20200016802AD41F4805113
:100CC0000160016801F4805101910199016841F0CE
:100CD000040101600068294600F0040001900198B9
:100CE000A020029002200390032005902046FFF7E9
:100CF00009FB4020CDE90206204629460496FFF76D
:100D000001FB06B070BD00002DE9F04381B0044640
:100D100090F85100012811D16068994616460D4699
:100D2000B0F5827F01D1A068D0B194F850000128BD
:100D300006D10227384601B0BDE8F083022708E05B
:100D4000012784F85070FFF7E9FB002D18BF002E33
:100D500014D1002084F85000384601B0BDE8F0837B
:100D6000042084F85100204629462A463346CDF80F
:100D7000009000F0BFF901B0BDE8F0838046042088
:100D8000002184F851006165A563A687E687216389
:100D9000A186E186A2682068B2F5004F21646164F3
:100DA00040D1016821F040010160016821F48041D7
:100DB00001600168490638D5E168E08F00293CD020
:100DC00000286BD019F101000BD11AE0C068A16BAB
:100DD00021F8020BA163E08F0138E087E08F002843
:100DE0005CD020688168C907F0D1FFF797FBA0EBC2
:100DF00008004845F2D33AE0FFF790FBE08F002867
:100E00004CD020688168C907F6D0C068A16B21F872
:100E1000020BA163E08F0138E087E08F0028F0D15A
:100E20003CE000BF01684906C6D4016841F04001BA
:100E30000160E168E08F0029C2D178B319F10100A7
:100E40000BD11BE0007BA16B0870A06B0130A0638D
:100E5000E08F0138E087E08F00B320688168C90720
:100E6000F0D1FFF75BFBA0EB08004845F3D3032765
:100E70003DE000BFFFF752FBE08F78B1206881684A
:100E8000C907F7D0007BA16B0870A06B0130A0638D
:100E9000E08F0138E087E08F0028EFD16068B0F57F
:100EA000827F11D1A068B0F5004F02D0B0F5806FFD
:100EB0000AD12168B0F5806F0A6822F040020A600A
:100EC00002D12046012101E0204680214A464346C6
:100ED00000F04AFC28B1606D40F0200060652020E1
:100EE0006065606D10B1012733E700BF0027012066
:100EF00084F851002DE700002DE9F04182B004464E
:100F000090F85000012803D1022002B0BDE8F08122
:100F100001201D4616460F4684F85000FFF7FEFAE2
:100F200094F8511001290DD18046002F4FF0010097
:100F300018BF002E0ED1002184F8501002B0BDE879
:100F4000F08100BF0220002184F8501002B0BDE8FB
:100F5000F08100BF0320002184F851006165276300
:100F6000A686E686A163A187E187A0682164B0F523
:100F7000004F2068616407D1016821F040010160E1
:100F8000016841F4804101600168490603D40168A9
:100F900041F0400101606168731EE268B1FA81F1BD
:100FA000B3FA83F349095B09B2F5006F41EA030123
:100FB0003CD131B137F8021BC1602763E08E0138A4
:100FC000E086E08E00286BD0681C0CD11DE000BFCD
:100FD000216B31F8022BC2602163E08E0138E0867C
:100FE000E08E00285CD0206881688907F0D4FFF784
:100FF00095FAA0EB0800A842F2D3032071E000BFED
:10100000FFF78CFAE08E00284AD0206881688907B3
:10101000F6D5216B31F8022BC2602163E08E0138D6
:10102000E086E08E0028F0D13AE000BF39B139788F
:101030000173206B01302063E08E0138E086E08E82
:1010400070B3681C0BD11BE0216B09780173206B16
:1010500001302063E08E0138E086E08E00B3206826
:1010600081688907F0D4FFF759FAA0EB0800A8427D
:10107000F3D3032035E000BFFFF750FAE08E78B1DC
:10108000206881688907F7D5216B09780173206B87
:1010900001302063E08E0138E086E08E0028EFD139
:1010A000204680212A46434600F05EFB28B1606D51
:1010B00040F02000606520206065A06838B90020FD
:1010C00001902068C1680191806801900198606D6D
:1010D00030B10120002184F8501002B0BDE8F08149
:1010E0000020012184F85110002184F8501002B032
:1010F000BDE8F0812DE9F04381B0044690F850003E
:10110000012803D1022001B0BDE8F08301201E4672
:1011100015460F4684F85000FFF700FA94F8511076
:101120008146012912D06068B0F5827F40F0A4802A
:10113000A06800284FF0020008BF042906D0002153
:1011400084F8501001B0BDE8F08300BF002F4FF0CD
:10115000010018BF002DF2D0002EF0D094F85100FD
:10116000002104281CBF052084F851006165A56397
:10117000E687A6872763E6862068A68621646164E1
:101180000168490603D4016841F0400101606168CB
:10119000731EE268B1FA81F1B3FA83F3DDF82080BF
:1011A00049095B09B2F5006F41EA03016CD131B125
:1011B00037F8021BC1602763E08E0138E086012505
:1011C00018F1010031D101E0FFF7A8F9E08E18B95C
:1011D000E08F002800F0C0802068816889070CD566
:1011E000E18E51B1012D08D1216B002531F8022B80
:1011F000C2602163E18E0139E1868168C907E3D0CD
:10120000E18F0029E0D0C068A16B012521F8020B15
:10121000A163E08F0138E087D6E700BFFFF77EF9D2
:10122000A0EB0900404580F0AB80E08E18B9E08F5C
:10123000002800F091802068816889070CD5E18E34
:1012400051B1012D08D1216B002531F8022BC2606C
:101250002163E18E0139E1868168C907DED0E18F23
:101260000029DBD0C068A16B012521F8020BA16326
:10127000E08F0138E087D1E70220002184F8501088
:1012800001B0BDE8F08300BF39B139780173206B3C
:1012900001302063E08E0138E086012518F101005D
:1012A00032D101E0FFF73AF9E08E10B9E08F002863
:1012B00052D02068816889070ED5E18E61B1012D79
:1012C0000AD1216B002509780173216B2068013157
:1012D0002163E18E0139E1868168C907E2D0E18F9F
:1012E0000029DFD0C068A16B01250870A06B013018
:1012F000A063E08F0138E087D4E700BFFFF70EF965
:10130000A0EB090040453BD2E08E08B9E08F18B34E
:101310002068816889070ED5E18E61B1012D0AD15F
:10132000216B002509780173216B2068013121634D
:10133000E18E0139E1868168C907DFD0E18F00299C
:10134000DCD0C068A16B01250870A06B0130A063E0
:10135000E08F0138E087D1E72046802142464B46A6
:1013600000F002FAB0B1606D40F02000606520200E
:1013700060650120002184F8501001B0BDE8F083C1
:10138000012084F851000320002184F8501001B09E
:10139000BDE8F083A06838B9002000902068C168DB
:1013A0000091806800900098606D00284FF0010067
:1013B00004BF84F851000020002184F8501001B0CF
:1013C000BDE8F083411E0020B0EB116F1CBF01206F
:1013D00070474EF21002CEF2000251604EF62351D9
:1013E000CEF20001F0230B7007219060116070476E
:1013F000FEE70000FEE70000FEE7000070B584B0E5
:1014000041F20005C4F20105A5F500642046102153
:101410000022FFF77DF8002000F0E6FA2020ADF86A
:101420000200284610210022FFF772F840F29806C9
:10143000C2F200060DF10201304602224FF47A7327
:10144000FFF75AFD284610210122FFF761F82120FD
:10145000ADF80400284610210022FFF759F801A931
:10146000304602224FF47A73FFF746FD28461021DA
:101470000122FFF74DF82220ADF806002846102182
:101480000022FFF745F80DF10601304602224FF425
:101490007A73FFF731FD284610210122FFF738F853
:1014A00040F22330ADF80800284610210022FFF753
:1014B0002FF802A9304602224FF47A73FFF71CFD81
:1014C000284610210122FFF723F82420ADF80A0056
:1014D000284610210022FFF71BF80DF10A013046C3
:1014E00002224FF47A73FFF707FD284610210122EC
:1014F000FFF70EF82520ADF80C0028461021002239
:10150000FFF706F803A9304602224FF47A73FFF77B
:10151000F3FC284610210122FEF7FAFF40F6266070
:10152000ADF80E00284610210022FEF7F1FF0DF164
:101530000E01304602224FF47A73FFF7DDFC284695
:1015400010210122FEF7E4FF204610210122FEF7C0
:10155000DFFF04B070BD0000F0B583B041F20004BD
:10156000C4F2010407462046102100220025FEF7A0
:10157000CFFF40F29806A020C2F200068DF80600C8
:101580000DF10601304601226423FFF7B5FC304619
:10159000394620224FF47A73FFF7AEFC2046102123
:1015A0000122FEF7B5FF0120FEF798FE17208DF807
:1015B00008002046102100228DF80750FEF7A8FFF2
:1015C00002A9304601226423FFF796FC0DF10701C2
:1015D000304601226423FFF797FB204610210122A9
:1015E000FEF796FF9DF8070000F01800102830D194
:1015F000E1208DF806008DF8090020461021002218
:10160000FEF786FF40F29806C2F200060DF10901CE
:101610003046012264230125FFF76EFC204610218D
:101620000122FEF775FF41F23710ADF80A0020469F
:1016300010210022FEF76CFF0DF10A013046022254
:101640004FF47A73FFF758FC204610210122FEF771
:101650005FFF284603B0F0BD2DE9F04182B041F2B2
:101660000005C4F20105A5F500640E4607462046B4
:10167000102100224FF00008FEF74AFF25208DF8C8
:1016800000002846102100228DF80160FEF740FF7F
:1016900040F29806C2F200066946304602224FF434
:1016A0007A73FFF729FC284610210122FEF730FF4C
:1016B00030208DF80200284610210022FEF728FF76
:1016C0000DF10201304601226423FFF715FC30467C
:1016D000394605224FF47A73FFF70EFC2846102195
:1016E0000122FEF715FF2846102100228DF8058003
:1016F0008DF80480FEF70CFF0DF105013046012244
:101700006423FFF7F9FB01A9304601226423FFF7A8
:10171000FBFA284610210122FEF7FAFE9DF804008C
:10172000202100F0F2008DF806108DF80700284601
:1017300010210022FEF7ECFE0DF1060130460222D8
:101740004FF47A73FFF7D8FB284610210122FEF7E9
:10175000DFFE204610210122FEF7DAFE02B0BDE8CE
:10176000F0810000704700002DE9F04182B01E4674
:1017700090460D460446FEF7D1FE301A00EB0807EE
:10178000FEF7CCFE40F23001C2F200010968C1F35D
:10179000CB317943019121688A682A40AA4227D136
:1017A000064618F101001FD0FEF7B8FE801BB842B4
:1017B00022D2019801990028A1F10101019121682B
:1017C000896808BF074601EA0500A842ECD00FE08F
:1017D00088682840A8420BD188682840A84207D1D1
:1017E00088682840A84203D188682840A842EFD0E2
:1017F000002002B0BDE8F081D4E900014268B1F5F3
:10180000827F22F0E00242600AD1A168B1F5004F68
:1018100002D0B1F5806F03D1016821F04001016071
:10182000A16AB1F5005F07D1016821F400510160A0
:10183000016841F400510160012084F8510000204A
:1018400084F85000032002B0BDE8F081704700002A
:10185000FEF76ABE70470000FEE7000090B0FEF79A
:1018600071FE06AC201D2421FEF7D0FC022006905C
:1018700001200A9010200B90002520460D95FEF7C0
:10188000D7FF28B1EFF3108072B600BFFEE700BFAC
:101890000F20CDE9010501A80021CDE903550595EB
:1018A000FEF7E6FE20B1EFF3108072B6FEE700BF50
:1018B000002741F218000997C4F20200016840F6BF
:1018C000000441F0100101600168C4F2010401F05C
:1018D0001001019101990168012241F0200101608C
:1018E00001684FF0100901F0200101910199016890
:1018F0004FF0010841F0040101600068102100F080
:101900000400019001982046FEF702FE04F50065F0
:10191000284610210022FEF7FBFD20464FF480717F
:1019200000224FF4807AFEF7F3FD4FF400500DF1E2
:10193000180BCDE90607284659460897FEF7E2FC42
:10194000022620465946CDE90698CDF82080099612
:10195000FEF7D8FC28465946CDE90698CDE9086639
:10196000FEF7D0FC20465946CDE906A8CDE9087619
:10197000FEF7C8FC40F2980004F52051C2F20000C6
:101980004FF482724FF4007380E886000A21C0E9A8
:101990000377C0E90573C761C0E90877C0E90A7138
:1019A000FFF720F920B1EFF3108072B6FEE700BF19
:1019B000FFF724FD40F20005C2F2000528460A2187
:1019C000FFF74AFE053503E04FF47A70FEF786FC18
:1019D0002846FFF7C1FD0128F6D120464FF480715B
:1019E000FEF78EFDF0E70000F0B587B0172803D0B2
:1019F000072815D1272001E041F2371041F20004F9
:101A0000C4F20104ADF81400204610210022FEF7B4
:101A10007FFD40F29800C2F2000005A93FE200BF3E
:101A200041F200044FF40260C4F20104ADF8140066
:101A3000204610210022FEF76BFD40F29805C2F20D
:101A4000000505A9284602224FF47A73FFF754FADD
:101A5000204610210122FEF75BFD43F62170ADF810
:101A60001400204610210022FEF752FD05A9284649
:101A700002224FF47A73FFF73FFA20461021012229
:101A8000FEF746FD40F22230ADF81400204610214A
:101A90000022FEF73DFD05A9284602224FF47A7385
:101AA000FFF72AFA204610210122FEF731FD40F20D
:101AB0002330ADF81400204610210022FEF728FD47
:101AC00005A9284602224FF47A73FFF715FA20463B
:101AD00010210122FEF71CFD4FF44970ADF81400EF
:101AE000204610210022FEF713FD05A928460222F8
:101AF0004FF47A73FFF700FA204610210122FEF717
:101B000007FD40F22520ADF81400204610210022E8
:101B1000FEF7FEFC05A9284602224FF47A73FFF770
:101B2000EBF9204610210122FEF7F2FC40F6266078
:101B3000ADF81400204610210022FEF7E9FC05A9AB
:101B4000284602224FF47A73FFF7D6F92046102177
:101B50000122FEF7DDFC2720ADF8140020461021FD
:101B60000022FEF7D5FC05A9284602224FF47A731D
:101B7000FFF7C2F9204610210122FEF7C9FC2820F8
:101B8000ADF81400204610210022FEF7C1FC05A983
:101B9000284602224FF47A73FFF7AEF9204610214F
:101BA0000122FEF7B5FC2920ADF8140020461021D3
:101BB0000022FEF7ADFC05A9284602224FF47A73F5
:101BC000FFF79AF9204610210122FEF7A1FC2A20F6
:101BD0006FF018064FF0E7378DF80C002046102103
:101BE00000228DF818600597FEF792FC03A928469D
:101BF00001226423FFF780F905A9284605224FF446
:101C00007A73FFF779F9204610210122FEF780FC54
:101C10006FF03D008DF810004FF0C23003902B2084
:101C20008DF80400204610210022FEF771FC01A966
:101C3000284601226423FFF75FF903A928460522FD
:101C40004FF47A73FFF758F9204610210122FEF76E
:101C50005FFC4CF22C30ADF804002046102100222D
:101C6000FEF756FC01A9284602224FF47A73FFF7CB
:101C700043F9204610210122FEF74AFC4CF22D4088
:101C8000ADF80400204610210022FEF741FC01A916
:101C9000284602224FF47A73FFF72EF920461021CE
:101CA0000122FEF735FC4CF22E50ADF80400204620
:101CB00010210022FEF72CFC01A9284602224FF435
:101CC0007A73FFF719F9204610210122FEF720FC54
:101CD0004CF22F60ADF80400204610210022FEF7E0
:101CE00017FC01A9284602224FF47A73FFF704F982
:101CF000204610210122FEF70BFC30208DF81A003F
:101D00002046102100228DF808600197FEF700FCA4
:101D10000DF11A01284601226423FFF7EDF801A90D
:101D2000284605224FF47A73FFF7E6F82046102183
:101D30000122FEF7EDFB3120ADF81A0020461021FC
:101D40000022FEF7E5FB0DF11A01284602224FF4AE
:101D50007A73FFF7D1F8204610210122FEF7D8FB55
:101D60003220ADF81A00204610210022FEF7D0FBE9
:101D70000DF11A01284602224FF47A73FFF7BCF8DE
:101D8000204610210122FEF7C3FB3320ADF81A00D4
:101D9000204610210022FEF7BBFB0DF11A01284658
:101DA00002224FF47A73FFF7A7F820461021012290
:101DB000FEF7AEFB3420ADF81A00204610210022B9
:101DC000FEF7A6FB0DF11A01284602224FF47A73A2
:101DD000FFF792F8204610210122FEF799FB3520EB
:101DE000ADF81A00204610210022FEF791FB0DF1FC
:101DF0001A01284602224FF47A73FFF77DF8204635
:101E000010210122FEF784FB3620ADF81A0020468F
:101E100010210022FEF77CFB0DF11A012846022258
:101E20004FF47A73FFF768F8204610210122FEF77D
:101E30006FFB41F23710ADF81A0020461021002246
:101E4000FEF766FB0DF11A01284602224FF47A7361
:101E5000FFF752F8204610210122FEF759FB3C20E3
:101E6000ADF81A00204610210022FEF751FB0DF1BB
:101E70001A01284602224FF47A73FFF73DF82046F4
:101E800010210122FEF744FB3D20ADF81A00204648
:101E900010210022FEF73CFB0DF11A012846022218
:101EA0004FF47A73FFF728F8204610210122FEF73D
:101EB0002FFB07B0F0BD0000000000000000010291
:101EC00003040607080901020203040506070809BE
:101ED0000A0B0C0D0E0F1010F81E00080000002059
:101EE000380000006C010008301F00083800002096
:101EF000C006000088010008EEDDCCBBAA48454CB6
:101F00004C4F20574F524C440A0000000000000084
:101F100000000000000000000000000000000000C1
:101F200001000000100000000024F4000000000088
:0400000508000131BD
:00000001FF
